{
  "_format": "hh-sol-artifact-1",
  "contractName": "EduChainUnified",
  "sourceName": "contracts/educhain.sol",
  "abi": [
    {
      "anonymous": false,
      "inputs": [
        {
          "indexed": true,
          "internalType": "address",
          "name": "student",
          "type": "address"
        },
        {
          "indexed": false,
          "internalType": "uint256",
          "name": "progressScore",
          "type": "uint256"
        }
      ],
      "name": "ProgressRecorded",
      "type": "event"
    },
    {
      "anonymous": false,
      "inputs": [
        {
          "indexed": true,
          "internalType": "string",
          "name": "resourceHash",
          "type": "string"
        },
        {
          "indexed": true,
          "internalType": "address",
          "name": "uploader",
          "type": "address"
        }
      ],
      "name": "ResourceUploaded",
      "type": "event"
    },
    {
      "anonymous": false,
      "inputs": [
        {
          "indexed": true,
          "internalType": "address",
          "name": "student",
          "type": "address"
        },
        {
          "indexed": false,
          "internalType": "string",
          "name": "name",
          "type": "string"
        }
      ],
      "name": "StudentCreated",
      "type": "event"
    },
    {
      "inputs": [
        {
          "internalType": "address",
          "name": "student",
          "type": "address"
        },
        {
          "internalType": "string",
          "name": "name",
          "type": "string"
        },
        {
          "internalType": "string",
          "name": "gender",
          "type": "string"
        },
        {
          "internalType": "string",
          "name": "email",
          "type": "string"
        },
        {
          "internalType": "string",
          "name": "phone",
          "type": "string"
        },
        {
          "internalType": "string",
          "name": "className",
          "type": "string"
        },
        {
          "internalType": "string",
          "name": "school",
          "type": "string"
        },
        {
          "internalType": "string",
          "name": "city",
          "type": "string"
        },
        {
          "internalType": "string",
          "name": "state",
          "type": "string"
        },
        {
          "internalType": "string",
          "name": "dob",
          "type": "string"
        }
      ],
      "name": "createStudentID",
      "outputs": [],
      "stateMutability": "nonpayable",
      "type": "function"
    },
    {
      "inputs": [
        {
          "internalType": "address",
          "name": "",
          "type": "address"
        }
      ],
      "name": "progress",
      "outputs": [
        {
          "internalType": "uint256",
          "name": "",
          "type": "uint256"
        }
      ],
      "stateMutability": "view",
      "type": "function"
    },
    {
      "inputs": [
        {
          "internalType": "address",
          "name": "student",
          "type": "address"
        },
        {
          "internalType": "uint256",
          "name": "progressScore",
          "type": "uint256"
        }
      ],
      "name": "recordProgress",
      "outputs": [],
      "stateMutability": "nonpayable",
      "type": "function"
    },
    {
      "inputs": [
        {
          "internalType": "string",
          "name": "",
          "type": "string"
        }
      ],
      "name": "resources",
      "outputs": [
        {
          "internalType": "string",
          "name": "resourceHash",
          "type": "string"
        },
        {
          "internalType": "string",
          "name": "resourceType",
          "type": "string"
        },
        {
          "internalType": "address",
          "name": "uploadedBy",
          "type": "address"
        }
      ],
      "stateMutability": "view",
      "type": "function"
    },
    {
      "inputs": [
        {
          "internalType": "address",
          "name": "",
          "type": "address"
        }
      ],
      "name": "students",
      "outputs": [
        {
          "internalType": "string",
          "name": "name",
          "type": "string"
        },
        {
          "internalType": "string",
          "name": "gender",
          "type": "string"
        },
        {
          "internalType": "string",
          "name": "email",
          "type": "string"
        },
        {
          "internalType": "string",
          "name": "phone",
          "type": "string"
        },
        {
          "internalType": "string",
          "name": "className",
          "type": "string"
        },
        {
          "internalType": "string",
          "name": "school",
          "type": "string"
        },
        {
          "internalType": "string",
          "name": "city",
          "type": "string"
        },
        {
          "internalType": "string",
          "name": "state",
          "type": "string"
        },
        {
          "internalType": "string",
          "name": "dob",
          "type": "string"
        }
      ],
      "stateMutability": "view",
      "type": "function"
    },
    {
      "inputs": [
        {
          "internalType": "string",
          "name": "resourceHash",
          "type": "string"
        },
        {
          "internalType": "string",
          "name": "resourceType",
          "type": "string"
        }
      ],
      "name": "uploadResource",
      "outputs": [],
      "stateMutability": "nonpayable",
      "type": "function"
    }
  ],
  "bytecode": "0x608060405234801561001057600080fd5b5061186c806100206000396000f3fe608060405234801561001057600080fd5b50600436106100625760003560e01c806304f86f3c146100675780635f9ba1ef14610099578063a6c807a9146100b5578063be7fded0146100ed578063da8589a214610109578063e1c40d1714610139575b600080fd5b610081600480360381019061007c9190610e39565b610155565b60405161009093929190610f42565b60405180910390f35b6100b360048036038101906100ae9190610fb3565b6102c5565b005b6100cf60048036038101906100ca919061118e565b6104f7565b6040516100e4999897969594939291906111bb565b60405180910390f35b61010760048036038101906101029190611287565b610a0d565b005b610123600480360381019061011e919061118e565b610b9f565b6040516101309190611318565b60405180910390f35b610153600480360381019061014e919061135f565b610bb7565b005b60018180516020810182018051848252602083016020850120818352809550505050505060009150905080600001805461018e906113ce565b80601f01602080910402602001604051908101604052809291908181526020018280546101ba906113ce565b80156102075780601f106101dc57610100808354040283529160200191610207565b820191906000526020600020905b8154815290600101906020018083116101ea57829003601f168201915b50505050509080600101805461021c906113ce565b80601f0160208091040260200160405190810160405280929190818152602001828054610248906113ce565b80156102955780601f1061026a57610100808354040283529160200191610295565b820191906000526020600020905b81548152906001019060200180831161027857829003601f168201915b5050505050908060020160009054906101000a900473ffffffffffffffffffffffffffffffffffffffff16905083565b60008060008c73ffffffffffffffffffffffffffffffffffffffff1673ffffffffffffffffffffffffffffffffffffffff1681526020019081526020016000206000018054610313906113ce565b905014610355576040517f08c379a000000000000000000000000000000000000000000000000000000000815260040161034c9061144b565b60405180910390fd5b6040518061012001604052808a8152602001898152602001888152602001878152602001868152602001858152602001848152602001838152602001828152506000808c73ffffffffffffffffffffffffffffffffffffffff1673ffffffffffffffffffffffffffffffffffffffff16815260200190815260200160002060008201518160000190816103e89190611617565b5060208201518160010190816103fe9190611617565b5060408201518160020190816104149190611617565b50606082015181600301908161042a9190611617565b5060808201518160040190816104409190611617565b5060a08201518160050190816104569190611617565b5060c082015181600601908161046c9190611617565b5060e08201518160070190816104829190611617565b506101008201518160080190816104999190611617565b509050508973ffffffffffffffffffffffffffffffffffffffff167fc1dc2120bf127423e03813ef46917d23d7ed2eb388fd93f752ddac5f6216eb9c8a6040516104e391906116e9565b60405180910390a250505050505050505050565b600060205280600052604060002060009150905080600001805461051a906113ce565b80601f0160208091040260200160405190810160405280929190818152602001828054610546906113ce565b80156105935780601f1061056857610100808354040283529160200191610593565b820191906000526020600020905b81548152906001019060200180831161057657829003601f168201915b5050505050908060010180546105a8906113ce565b80601f01602080910402602001604051908101604052809291908181526020018280546105d4906113ce565b80156106215780601f106105f657610100808354040283529160200191610621565b820191906000526020600020905b81548152906001019060200180831161060457829003601f168201915b505050505090806002018054610636906113ce565b80601f0160208091040260200160405190810160405280929190818152602001828054610662906113ce565b80156106af5780601f10610684576101008083540402835291602001916106af565b820191906000526020600020905b81548152906001019060200180831161069257829003601f168201915b5050505050908060030180546106c4906113ce565b80601f01602080910402602001604051908101604052809291908181526020018280546106f0906113ce565b801561073d5780601f106107125761010080835404028352916020019161073d565b820191906000526020600020905b81548152906001019060200180831161072057829003601f168201915b505050505090806004018054610752906113ce565b80601f016020809104026020016040519081016040528092919081815260200182805461077e906113ce565b80156107cb5780601f106107a0576101008083540402835291602001916107cb565b820191906000526020600020905b8154815290600101906020018083116107ae57829003601f168201915b5050505050908060050180546107e0906113ce565b80601f016020809104026020016040519081016040528092919081815260200182805461080c906113ce565b80156108595780601f1061082e57610100808354040283529160200191610859565b820191906000526020600020905b81548152906001019060200180831161083c57829003601f168201915b50505050509080600601805461086e906113ce565b80601f016020809104026020016040519081016040528092919081815260200182805461089a906113ce565b80156108e75780601f106108bc576101008083540402835291602001916108e7565b820191906000526020600020905b8154815290600101906020018083116108ca57829003601f168201915b5050505050908060070180546108fc906113ce565b80601f0160208091040260200160405190810160405280929190818152602001828054610928906113ce565b80156109755780601f1061094a57610100808354040283529160200191610975565b820191906000526020600020905b81548152906001019060200180831161095857829003601f168201915b50505050509080600801805461098a906113ce565b80601f01602080910402602001604051908101604052809291908181526020018280546109b6906113ce565b8015610a035780601f106109d857610100808354040283529160200191610a03565b820191906000526020600020905b8154815290600101906020018083116109e657829003601f168201915b5050505050905089565b6000600183604051610a1f9190611747565b90815260200160405180910390206000018054610a3b906113ce565b905014610a7d576040517f08c379a0000000000000000000000000000000000000000000000000000000008152600401610a74906117aa565b60405180910390fd5b60405180606001604052808381526020018281526020013373ffffffffffffffffffffffffffffffffffffffff16815250600183604051610abe9190611747565b90815260200160405180910390206000820151816000019081610ae19190611617565b506020820151816001019081610af79190611617565b5060408201518160020160006101000a81548173ffffffffffffffffffffffffffffffffffffffff021916908373ffffffffffffffffffffffffffffffffffffffff1602179055509050503373ffffffffffffffffffffffffffffffffffffffff1682604051610b679190611747565b60405180910390207f9d88187712e9d788fa48cb487626485d3b5419940312e6f4752258e71c22bc1960405160405180910390a35050565b60026020528060005260406000206000915090505481565b8160008060008373ffffffffffffffffffffffffffffffffffffffff1673ffffffffffffffffffffffffffffffffffffffff1681526020019081526020016000206002018054610c06906113ce565b905011610c48576040517f08c379a0000000000000000000000000000000000000000000000000000000008152600401610c3f90611816565b60405180910390fd5b81600260008573ffffffffffffffffffffffffffffffffffffffff1673ffffffffffffffffffffffffffffffffffffffff168152602001908152602001600020819055508273ffffffffffffffffffffffffffffffffffffffff167f3870e5e337ffe4b227790dce8916bdd0314f874a39f2823ecb16b3a4327e967e83604051610cd29190611318565b60405180910390a2505050565b6000604051905090565b600080fd5b600080fd5b600080fd5b600080fd5b6000601f19601f8301169050919050565b7f4e487b7100000000000000000000000000000000000000000000000000000000600052604160045260246000fd5b610d4682610cfd565b810181811067ffffffffffffffff82111715610d6557610d64610d0e565b5b80604052505050565b6000610d78610cdf565b9050610d848282610d3d565b919050565b600067ffffffffffffffff821115610da457610da3610d0e565b5b610dad82610cfd565b9050602081019050919050565b82818337600083830152505050565b6000610ddc610dd784610d89565b610d6e565b905082815260208101848484011115610df857610df7610cf8565b5b610e03848285610dba565b509392505050565b600082601f830112610e2057610e1f610cf3565b5b8135610e30848260208601610dc9565b91505092915050565b600060208284031215610e4f57610e4e610ce9565b5b600082013567ffffffffffffffff811115610e6d57610e6c610cee565b5b610e7984828501610e0b565b91505092915050565b600081519050919050565b600082825260208201905092915050565b60005b83811015610ebc578082015181840152602081019050610ea1565b60008484015250505050565b6000610ed382610e82565b610edd8185610e8d565b9350610eed818560208601610e9e565b610ef681610cfd565b840191505092915050565b600073ffffffffffffffffffffffffffffffffffffffff82169050919050565b6000610f2c82610f01565b9050919050565b610f3c81610f21565b82525050565b60006060820190508181036000830152610f5c8186610ec8565b90508181036020830152610f708185610ec8565b9050610f7f6040830184610f33565b949350505050565b610f9081610f21565b8114610f9b57600080fd5b50565b600081359050610fad81610f87565b92915050565b6000806000806000806000806000806101408b8d031215610fd757610fd6610ce9565b5b6000610fe58d828e01610f9e565b9a505060208b013567ffffffffffffffff81111561100657611005610cee565b5b6110128d828e01610e0b565b99505060408b013567ffffffffffffffff81111561103357611032610cee565b5b61103f8d828e01610e0b565b98505060608b013567ffffffffffffffff8111156110605761105f610cee565b5b61106c8d828e01610e0b565b97505060808b013567ffffffffffffffff81111561108d5761108c610cee565b5b6110998d828e01610e0b565b96505060a08b013567ffffffffffffffff8111156110ba576110b9610cee565b5b6110c68d828e01610e0b565b95505060c08b013567ffffffffffffffff8111156110e7576110e6610cee565b5b6110f38d828e01610e0b565b94505060e08b013567ffffffffffffffff81111561111457611113610cee565b5b6111208d828e01610e0b565b9350506101008b013567ffffffffffffffff81111561114257611141610cee565b5b61114e8d828e01610e0b565b9250506101208b013567ffffffffffffffff8111156111705761116f610cee565b5b61117c8d828e01610e0b565b9150509295989b9194979a5092959850565b6000602082840312156111a4576111a3610ce9565b5b60006111b284828501610f9e565b91505092915050565b60006101208201905081810360008301526111d6818c610ec8565b905081810360208301526111ea818b610ec8565b905081810360408301526111fe818a610ec8565b905081810360608301526112128189610ec8565b905081810360808301526112268188610ec8565b905081810360a083015261123a8187610ec8565b905081810360c083015261124e8186610ec8565b905081810360e08301526112628185610ec8565b90508181036101008301526112778184610ec8565b90509a9950505050505050505050565b6000806040838503121561129e5761129d610ce9565b5b600083013567ffffffffffffffff8111156112bc576112bb610cee565b5b6112c885828601610e0b565b925050602083013567ffffffffffffffff8111156112e9576112e8610cee565b5b6112f585828601610e0b565b9150509250929050565b6000819050919050565b611312816112ff565b82525050565b600060208201905061132d6000830184611309565b92915050565b61133c816112ff565b811461134757600080fd5b50565b60008135905061135981611333565b92915050565b6000806040838503121561137657611375610ce9565b5b600061138485828601610f9e565b92505060206113958582860161134a565b9150509250929050565b7f4e487b7100000000000000000000000000000000000000000000000000000000600052602260045260246000fd5b600060028204905060018216806113e657607f821691505b6020821081036113f9576113f861139f565b5b50919050565b7f53747564656e7420494420616c72656164792065786973747300000000000000600082015250565b6000611435601983610e8d565b9150611440826113ff565b602082019050919050565b6000602082019050818103600083015261146481611428565b9050919050565b60008190508160005260206000209050919050565b60006020601f8301049050919050565b600082821b905092915050565b6000600883026114cd7fffffffffffffffffffffffffffffffffffffffffffffffffffffffffffffffff82611490565b6114d78683611490565b95508019841693508086168417925050509392505050565b6000819050919050565b600061151461150f61150a846112ff565b6114ef565b6112ff565b9050919050565b6000819050919050565b61152e836114f9565b61154261153a8261151b565b84845461149d565b825550505050565b600090565b61155761154a565b611562818484611525565b505050565b5b818110156115865761157b60008261154f565b600181019050611568565b5050565b601f8211156115cb5761159c8161146b565b6115a584611480565b810160208510156115b4578190505b6115c86115c085611480565b830182611567565b50505b505050565b600082821c905092915050565b60006115ee600019846008026115d0565b1980831691505092915050565b600061160783836115dd565b9150826002028217905092915050565b61162082610e82565b67ffffffffffffffff81111561163957611638610d0e565b5b61164382546113ce565b61164e82828561158a565b600060209050601f831160018114611681576000841561166f578287015190505b61167985826115fb565b8655506116e1565b601f19841661168f8661146b565b60005b828110156116b757848901518255600182019150602085019450602081019050611692565b868310156116d457848901516116d0601f8916826115dd565b8355505b6001600288020188555050505b505050505050565b600060208201905081810360008301526117038184610ec8565b905092915050565b600081905092915050565b600061172182610e82565b61172b818561170b565b935061173b818560208601610e9e565b80840191505092915050565b60006117538284611716565b915081905092915050565b7f5265736f7572636520616c726561647920657869737473000000000000000000600082015250565b6000611794601783610e8d565b915061179f8261175e565b602082019050919050565b600060208201905081810360008301526117c381611787565b9050919050565b7f53747564656e7420646f6573206e6f7420657869737400000000000000000000600082015250565b6000611800601683610e8d565b915061180b826117ca565b602082019050919050565b6000602082019050818103600083015261182f816117f3565b905091905056fea2646970667358221220cfdd02751d67cfe9014f12471cb2b1bd3dfbcb07029b57996d1254ec519b5fd064736f6c63430008130033",
  "linkReferences": {},
  "deployedLinkReferences": {}
}